{
  "contractName": "EsaipTickets",
  "abi": [
    {
      "inputs": [],
      "stateMutability": "nonpayable",
      "type": "constructor"
    },
    {
      "anonymous": false,
      "inputs": [
        {
          "indexed": true,
          "internalType": "address",
          "name": "owner",
          "type": "address"
        },
        {
          "indexed": true,
          "internalType": "address",
          "name": "approved",
          "type": "address"
        },
        {
          "indexed": true,
          "internalType": "uint256",
          "name": "tokenId",
          "type": "uint256"
        }
      ],
      "name": "Approval",
      "type": "event"
    },
    {
      "anonymous": false,
      "inputs": [
        {
          "indexed": true,
          "internalType": "address",
          "name": "owner",
          "type": "address"
        },
        {
          "indexed": true,
          "internalType": "address",
          "name": "operator",
          "type": "address"
        },
        {
          "indexed": false,
          "internalType": "bool",
          "name": "approved",
          "type": "bool"
        }
      ],
      "name": "ApprovalForAll",
      "type": "event"
    },
    {
      "anonymous": false,
      "inputs": [
        {
          "indexed": true,
          "internalType": "address",
          "name": "previousOwner",
          "type": "address"
        },
        {
          "indexed": true,
          "internalType": "address",
          "name": "newOwner",
          "type": "address"
        }
      ],
      "name": "OwnershipTransferred",
      "type": "event"
    },
    {
      "anonymous": false,
      "inputs": [
        {
          "indexed": true,
          "internalType": "address",
          "name": "from",
          "type": "address"
        },
        {
          "indexed": true,
          "internalType": "address",
          "name": "to",
          "type": "address"
        },
        {
          "indexed": true,
          "internalType": "uint256",
          "name": "tokenId",
          "type": "uint256"
        }
      ],
      "name": "Transfer",
      "type": "event"
    },
    {
      "inputs": [
        {
          "internalType": "address",
          "name": "to",
          "type": "address"
        },
        {
          "internalType": "uint256",
          "name": "tokenId",
          "type": "uint256"
        }
      ],
      "name": "approve",
      "outputs": [],
      "stateMutability": "nonpayable",
      "type": "function"
    },
    {
      "inputs": [
        {
          "internalType": "address",
          "name": "owner",
          "type": "address"
        }
      ],
      "name": "balanceOf",
      "outputs": [
        {
          "internalType": "uint256",
          "name": "",
          "type": "uint256"
        }
      ],
      "stateMutability": "view",
      "type": "function",
      "constant": true
    },
    {
      "inputs": [
        {
          "internalType": "uint256",
          "name": "tokenId",
          "type": "uint256"
        }
      ],
      "name": "getApproved",
      "outputs": [
        {
          "internalType": "address",
          "name": "",
          "type": "address"
        }
      ],
      "stateMutability": "view",
      "type": "function",
      "constant": true
    },
    {
      "inputs": [
        {
          "internalType": "address",
          "name": "owner",
          "type": "address"
        },
        {
          "internalType": "address",
          "name": "operator",
          "type": "address"
        }
      ],
      "name": "isApprovedForAll",
      "outputs": [
        {
          "internalType": "bool",
          "name": "",
          "type": "bool"
        }
      ],
      "stateMutability": "view",
      "type": "function",
      "constant": true
    },
    {
      "inputs": [],
      "name": "name",
      "outputs": [
        {
          "internalType": "string",
          "name": "",
          "type": "string"
        }
      ],
      "stateMutability": "view",
      "type": "function",
      "constant": true
    },
    {
      "inputs": [],
      "name": "owner",
      "outputs": [
        {
          "internalType": "address",
          "name": "",
          "type": "address"
        }
      ],
      "stateMutability": "view",
      "type": "function",
      "constant": true
    },
    {
      "inputs": [
        {
          "internalType": "uint256",
          "name": "tokenId",
          "type": "uint256"
        }
      ],
      "name": "ownerOf",
      "outputs": [
        {
          "internalType": "address",
          "name": "",
          "type": "address"
        }
      ],
      "stateMutability": "view",
      "type": "function",
      "constant": true
    },
    {
      "inputs": [],
      "name": "renounceOwnership",
      "outputs": [],
      "stateMutability": "nonpayable",
      "type": "function"
    },
    {
      "inputs": [
        {
          "internalType": "address",
          "name": "from",
          "type": "address"
        },
        {
          "internalType": "address",
          "name": "to",
          "type": "address"
        },
        {
          "internalType": "uint256",
          "name": "tokenId",
          "type": "uint256"
        }
      ],
      "name": "safeTransferFrom",
      "outputs": [],
      "stateMutability": "nonpayable",
      "type": "function"
    },
    {
      "inputs": [
        {
          "internalType": "address",
          "name": "from",
          "type": "address"
        },
        {
          "internalType": "address",
          "name": "to",
          "type": "address"
        },
        {
          "internalType": "uint256",
          "name": "tokenId",
          "type": "uint256"
        },
        {
          "internalType": "bytes",
          "name": "data",
          "type": "bytes"
        }
      ],
      "name": "safeTransferFrom",
      "outputs": [],
      "stateMutability": "nonpayable",
      "type": "function"
    },
    {
      "inputs": [
        {
          "internalType": "address",
          "name": "operator",
          "type": "address"
        },
        {
          "internalType": "bool",
          "name": "approved",
          "type": "bool"
        }
      ],
      "name": "setApprovalForAll",
      "outputs": [],
      "stateMutability": "nonpayable",
      "type": "function"
    },
    {
      "inputs": [
        {
          "internalType": "bytes4",
          "name": "interfaceId",
          "type": "bytes4"
        }
      ],
      "name": "supportsInterface",
      "outputs": [
        {
          "internalType": "bool",
          "name": "",
          "type": "bool"
        }
      ],
      "stateMutability": "view",
      "type": "function",
      "constant": true
    },
    {
      "inputs": [],
      "name": "symbol",
      "outputs": [
        {
          "internalType": "string",
          "name": "",
          "type": "string"
        }
      ],
      "stateMutability": "view",
      "type": "function",
      "constant": true
    },
    {
      "inputs": [
        {
          "internalType": "uint256",
          "name": "index",
          "type": "uint256"
        }
      ],
      "name": "tokenByIndex",
      "outputs": [
        {
          "internalType": "uint256",
          "name": "",
          "type": "uint256"
        }
      ],
      "stateMutability": "view",
      "type": "function",
      "constant": true
    },
    {
      "inputs": [
        {
          "internalType": "address",
          "name": "owner",
          "type": "address"
        },
        {
          "internalType": "uint256",
          "name": "index",
          "type": "uint256"
        }
      ],
      "name": "tokenOfOwnerByIndex",
      "outputs": [
        {
          "internalType": "uint256",
          "name": "",
          "type": "uint256"
        }
      ],
      "stateMutability": "view",
      "type": "function",
      "constant": true
    },
    {
      "inputs": [
        {
          "internalType": "uint256",
          "name": "tokenId",
          "type": "uint256"
        }
      ],
      "name": "tokenURI",
      "outputs": [
        {
          "internalType": "string",
          "name": "",
          "type": "string"
        }
      ],
      "stateMutability": "view",
      "type": "function",
      "constant": true
    },
    {
      "inputs": [],
      "name": "totalSupply",
      "outputs": [
        {
          "internalType": "uint256",
          "name": "",
          "type": "uint256"
        }
      ],
      "stateMutability": "view",
      "type": "function",
      "constant": true
    },
    {
      "inputs": [
        {
          "internalType": "address",
          "name": "from",
          "type": "address"
        },
        {
          "internalType": "address",
          "name": "to",
          "type": "address"
        },
        {
          "internalType": "uint256",
          "name": "tokenId",
          "type": "uint256"
        }
      ],
      "name": "transferFrom",
      "outputs": [],
      "stateMutability": "nonpayable",
      "type": "function"
    },
    {
      "inputs": [
        {
          "internalType": "address",
          "name": "newOwner",
          "type": "address"
        }
      ],
      "name": "transferOwnership",
      "outputs": [],
      "stateMutability": "nonpayable",
      "type": "function"
    },
    {
      "inputs": [
        {
          "internalType": "address",
          "name": "to",
          "type": "address"
        },
        {
          "internalType": "uint256",
          "name": "concertId",
          "type": "uint256"
        }
      ],
      "name": "safeMint",
      "outputs": [],
      "stateMutability": "nonpayable",
      "type": "function"
    },
    {
      "inputs": [
        {
          "internalType": "uint256",
          "name": "tokenId",
          "type": "uint256"
        }
      ],
      "name": "getTicketInfo",
      "outputs": [
        {
          "internalType": "uint256",
          "name": "concertId",
          "type": "uint256"
        }
      ],
      "stateMutability": "view",
      "type": "function",
      "constant": true
    }
  ],
  "bytecode": "0x60806040523480156200001157600080fd5b506040518060400160405280600c81526020017f45736169705469636b65747300000000000000000000000000000000000000008152506040518060400160405280600381526020017f4554530000000000000000000000000000000000000000000000000000000000815250816000908051906020019062000096929190620001a6565b508060019080519060200190620000af929190620001a6565b505050620000d2620000c6620000d860201b60201c565b620000e060201b60201c565b620002bb565b600033905090565b6000600a60009054906101000a900473ffffffffffffffffffffffffffffffffffffffff16905081600a60006101000a81548173ffffffffffffffffffffffffffffffffffffffff021916908373ffffffffffffffffffffffffffffffffffffffff1602179055508173ffffffffffffffffffffffffffffffffffffffff168173ffffffffffffffffffffffffffffffffffffffff167f8be0079c531659141344cd1fd0a4f28419497f9722a3daafe3b4186f6b6457e060405160405180910390a35050565b828054620001b49062000285565b90600052602060002090601f016020900481019282620001d8576000855562000224565b82601f10620001f357805160ff191683800117855562000224565b8280016001018555821562000224579182015b828111156200022357825182559160200191906001019062000206565b5b50905062000233919062000237565b5090565b5b808211156200025257600081600090555060010162000238565b5090565b7f4e487b7100000000000000000000000000000000000000000000000000000000600052602260045260246000fd5b600060028204905060018216806200029e57607f821691505b60208210811415620002b557620002b462000256565b5b50919050565b61324580620002cb6000396000f3fe608060405234801561001057600080fd5b50600436106101375760003560e01c806370a08231116100b8578063a22cb4651161007c578063a22cb4651461034e578063b88d4fde1461036a578063c87b56dd14610386578063e985e9c5146103b6578063f2fde38b146103e6578063ff99a0631461040257610137565b806370a08231146102bc578063715018a6146102ec5780638da5cb5b146102f657806395d89b4114610314578063a14481941461033257610137565b806323b872dd116100ff57806323b872dd146101f45780632f745c591461021057806342842e0e146102405780634f6ccce71461025c5780636352211e1461028c57610137565b806301ffc9a71461013c57806306fdde031461016c578063081812fc1461018a578063095ea7b3146101ba57806318160ddd146101d6575b600080fd5b610156600480360381019061015191906121c2565b610432565b604051610163919061220a565b60405180910390f35b6101746104ac565b60405161018191906122be565b60405180910390f35b6101a4600480360381019061019f9190612316565b61053e565b6040516101b19190612384565b60405180910390f35b6101d460048036038101906101cf91906123cb565b610584565b005b6101de61069c565b6040516101eb919061241a565b60405180910390f35b61020e60048036038101906102099190612435565b6106a9565b005b61022a600480360381019061022591906123cb565b610709565b604051610237919061241a565b60405180910390f35b61025a60048036038101906102559190612435565b6107ae565b005b61027660048036038101906102719190612316565b6107ce565b604051610283919061241a565b60405180910390f35b6102a660048036038101906102a19190612316565b61083f565b6040516102b39190612384565b60405180910390f35b6102d660048036038101906102d19190612488565b6108c6565b6040516102e3919061241a565b60405180910390f35b6102f461097e565b005b6102fe610992565b60405161030b9190612384565b60405180910390f35b61031c6109bc565b60405161032991906122be565b60405180910390f35b61034c600480360381019061034791906123cb565b610a4e565b005b610368600480360381019061036391906124e1565b610a9e565b005b610384600480360381019061037f9190612656565b610ab4565b005b6103a0600480360381019061039b9190612316565b610b16565b6040516103ad91906122be565b60405180910390f35b6103d060048036038101906103cb91906126d9565b610b7e565b6040516103dd919061220a565b60405180910390f35b61040060048036038101906103fb9190612488565b610c12565b005b61041c60048036038101906104179190612316565b610c96565b604051610429919061241a565b60405180910390f35b60007f780e9d63000000000000000000000000000000000000000000000000000000007bffffffffffffffffffffffffffffffffffffffffffffffffffffffff1916827bffffffffffffffffffffffffffffffffffffffffffffffffffffffff191614806104a557506104a482610cbb565b5b9050919050565b6060600080546104bb90612748565b80601f01602080910402602001604051908101604052809291908181526020018280546104e790612748565b80156105345780601f1061050957610100808354040283529160200191610534565b820191906000526020600020905b81548152906001019060200180831161051757829003601f168201915b5050505050905090565b600061054982610d9d565b6004600083815260200190815260200160002060009054906101000a900473ffffffffffffffffffffffffffffffffffffffff169050919050565b600061058f8261083f565b90508073ffffffffffffffffffffffffffffffffffffffff168373ffffffffffffffffffffffffffffffffffffffff161415610600576040517f08c379a00000000000000000000000000000000000000000000000000000000081526004016105f7906127ec565b60405180910390fd5b8073ffffffffffffffffffffffffffffffffffffffff1661061f610de8565b73ffffffffffffffffffffffffffffffffffffffff16148061064e575061064d81610648610de8565b610b7e565b5b61068d576040517f08c379a00000000000000000000000000000000000000000000000000000000081526004016106849061287e565b60405180910390fd5b6106978383610df0565b505050565b6000600880549050905090565b6106ba6106b4610de8565b82610ea9565b6106f9576040517f08c379a00000000000000000000000000000000000000000000000000000000081526004016106f090612910565b60405180910390fd5b610704838383610f3e565b505050565b6000610714836108c6565b8210610755576040517f08c379a000000000000000000000000000000000000000000000000000000000815260040161074c906129a2565b60405180910390fd5b600660008473ffffffffffffffffffffffffffffffffffffffff1673ffffffffffffffffffffffffffffffffffffffff168152602001908152602001600020600083815260200190815260200160002054905092915050565b6107c983838360405180602001604052806000815250610ab4565b505050565b60006107d861069c565b8210610819576040517f08c379a000000000000000000000000000000000000000000000000000000000815260040161081090612a34565b60405180910390fd5b6008828154811061082d5761082c612a54565b5b90600052602060002001549050919050565b60008061084b83611238565b9050600073ffffffffffffffffffffffffffffffffffffffff168173ffffffffffffffffffffffffffffffffffffffff1614156108bd576040517f08c379a00000000000000000000000000000000000000000000000000000000081526004016108b490612acf565b60405180910390fd5b80915050919050565b60008073ffffffffffffffffffffffffffffffffffffffff168273ffffffffffffffffffffffffffffffffffffffff161415610937576040517f08c379a000000000000000000000000000000000000000000000000000000000815260040161092e90612b61565b60405180910390fd5b600360008373ffffffffffffffffffffffffffffffffffffffff1673ffffffffffffffffffffffffffffffffffffffff168152602001908152602001600020549050919050565b610986611275565b61099060006112f3565b565b6000600a60009054906101000a900473ffffffffffffffffffffffffffffffffffffffff16905090565b6060600180546109cb90612748565b80601f01602080910402602001604051908101604052809291908181526020018280546109f790612748565b8015610a445780601f10610a1957610100808354040283529160200191610a44565b820191906000526020600020905b815481529060010190602001808311610a2757829003601f168201915b5050505050905090565b610a56611275565b6000610a62600b6113b9565b9050610a6e600b6113c7565b610a7883826113dd565b6000600c6000838152602001908152602001600020905082816000018190555050505050565b610ab0610aa9610de8565b83836113fb565b5050565b610ac5610abf610de8565b83610ea9565b610b04576040517f08c379a0000000000000000000000000000000000000000000000000000000008152600401610afb90612910565b60405180910390fd5b610b1084848484611568565b50505050565b6060610b2182610d9d565b6000610b2b6115c4565b90506000815111610b4b5760405180602001604052806000815250610b76565b80610b55846115db565b604051602001610b66929190612bbd565b6040516020818303038152906040525b915050919050565b6000600560008473ffffffffffffffffffffffffffffffffffffffff1673ffffffffffffffffffffffffffffffffffffffff16815260200190815260200160002060008373ffffffffffffffffffffffffffffffffffffffff1673ffffffffffffffffffffffffffffffffffffffff16815260200190815260200160002060009054906101000a900460ff16905092915050565b610c1a611275565b600073ffffffffffffffffffffffffffffffffffffffff168173ffffffffffffffffffffffffffffffffffffffff161415610c8a576040517f08c379a0000000000000000000000000000000000000000000000000000000008152600401610c8190612c53565b60405180910390fd5b610c93816112f3565b50565b600080600c600084815260200190815260200160002090508060000154915050919050565b60007f80ac58cd000000000000000000000000000000000000000000000000000000007bffffffffffffffffffffffffffffffffffffffffffffffffffffffff1916827bffffffffffffffffffffffffffffffffffffffffffffffffffffffff19161480610d8657507f5b5e139f000000000000000000000000000000000000000000000000000000007bffffffffffffffffffffffffffffffffffffffffffffffffffffffff1916827bffffffffffffffffffffffffffffffffffffffffffffffffffffffff1916145b80610d965750610d95826116b3565b5b9050919050565b610da68161171d565b610de5576040517f08c379a0000000000000000000000000000000000000000000000000000000008152600401610ddc90612acf565b60405180910390fd5b50565b600033905090565b816004600083815260200190815260200160002060006101000a81548173ffffffffffffffffffffffffffffffffffffffff021916908373ffffffffffffffffffffffffffffffffffffffff160217905550808273ffffffffffffffffffffffffffffffffffffffff16610e638361083f565b73ffffffffffffffffffffffffffffffffffffffff167f8c5be1e5ebec7d5bd14f71427d1e84f3dd0314c0f7b2291e5b200ac8c7c3b92560405160405180910390a45050565b600080610eb58361083f565b90508073ffffffffffffffffffffffffffffffffffffffff168473ffffffffffffffffffffffffffffffffffffffff161480610ef75750610ef68185610b7e565b5b80610f3557508373ffffffffffffffffffffffffffffffffffffffff16610f1d8461053e565b73ffffffffffffffffffffffffffffffffffffffff16145b91505092915050565b8273ffffffffffffffffffffffffffffffffffffffff16610f5e8261083f565b73ffffffffffffffffffffffffffffffffffffffff1614610fb4576040517f08c379a0000000000000000000000000000000000000000000000000000000008152600401610fab90612ce5565b60405180910390fd5b600073ffffffffffffffffffffffffffffffffffffffff168273ffffffffffffffffffffffffffffffffffffffff161415611024576040517f08c379a000000000000000000000000000000000000000000000000000000000815260040161101b90612d77565b60405180910390fd5b611031838383600161175e565b8273ffffffffffffffffffffffffffffffffffffffff166110518261083f565b73ffffffffffffffffffffffffffffffffffffffff16146110a7576040517f08c379a000000000000000000000000000000000000000000000000000000000815260040161109e90612ce5565b60405180910390fd5b6004600082815260200190815260200160002060006101000a81549073ffffffffffffffffffffffffffffffffffffffff02191690556001600360008573ffffffffffffffffffffffffffffffffffffffff1673ffffffffffffffffffffffffffffffffffffffff168152602001908152602001600020600082825403925050819055506001600360008473ffffffffffffffffffffffffffffffffffffffff1673ffffffffffffffffffffffffffffffffffffffff16815260200190815260200160002060008282540192505081905550816002600083815260200190815260200160002060006101000a81548173ffffffffffffffffffffffffffffffffffffffff021916908373ffffffffffffffffffffffffffffffffffffffff160217905550808273ffffffffffffffffffffffffffffffffffffffff168473ffffffffffffffffffffffffffffffffffffffff167fddf252ad1be2c89b69c2b068fc378daa952ba7f163c4a11628f55a4df523b3ef60405160405180910390a461123383838360016118be565b505050565b60006002600083815260200190815260200160002060009054906101000a900473ffffffffffffffffffffffffffffffffffffffff169050919050565b61127d610de8565b73ffffffffffffffffffffffffffffffffffffffff1661129b610992565b73ffffffffffffffffffffffffffffffffffffffff16146112f1576040517f08c379a00000000000000000000000000000000000000000000000000000000081526004016112e890612de3565b60405180910390fd5b565b6000600a60009054906101000a900473ffffffffffffffffffffffffffffffffffffffff16905081600a60006101000a81548173ffffffffffffffffffffffffffffffffffffffff021916908373ffffffffffffffffffffffffffffffffffffffff1602179055508173ffffffffffffffffffffffffffffffffffffffff168173ffffffffffffffffffffffffffffffffffffffff167f8be0079c531659141344cd1fd0a4f28419497f9722a3daafe3b4186f6b6457e060405160405180910390a35050565b600081600001549050919050565b6001816000016000828254019250508190555050565b6113f78282604051806020016040528060008152506118c4565b5050565b8173ffffffffffffffffffffffffffffffffffffffff168373ffffffffffffffffffffffffffffffffffffffff16141561146a576040517f08c379a000000000000000000000000000000000000000000000000000000000815260040161146190612e4f565b60405180910390fd5b80600560008573ffffffffffffffffffffffffffffffffffffffff1673ffffffffffffffffffffffffffffffffffffffff16815260200190815260200160002060008473ffffffffffffffffffffffffffffffffffffffff1673ffffffffffffffffffffffffffffffffffffffff16815260200190815260200160002060006101000a81548160ff0219169083151502179055508173ffffffffffffffffffffffffffffffffffffffff168373ffffffffffffffffffffffffffffffffffffffff167f17307eab39ab6107e8899845ad3d59bd9653f200f220920489ca2b5937696c318360405161155b919061220a565b60405180910390a3505050565b611573848484610f3e565b61157f8484848461191f565b6115be576040517f08c379a00000000000000000000000000000000000000000000000000000000081526004016115b590612ee1565b60405180910390fd5b50505050565b606060405180602001604052806000815250905090565b6060600060016115ea84611ab6565b01905060008167ffffffffffffffff8111156116095761160861252b565b5b6040519080825280601f01601f19166020018201604052801561163b5781602001600182028036833780820191505090505b509050600082602001820190505b6001156116a8578080600190039150507f3031323334353637383961626364656600000000000000000000000000000000600a86061a8153600a858161169257611691612f01565b5b04945060008514156116a3576116a8565b611649565b819350505050919050565b60007f01ffc9a7000000000000000000000000000000000000000000000000000000007bffffffffffffffffffffffffffffffffffffffffffffffffffffffff1916827bffffffffffffffffffffffffffffffffffffffffffffffffffffffff1916149050919050565b60008073ffffffffffffffffffffffffffffffffffffffff1661173f83611238565b73ffffffffffffffffffffffffffffffffffffffff1614159050919050565b61176a84848484611c09565b60018111156117ae576040517f08c379a00000000000000000000000000000000000000000000000000000000081526004016117a590612fa2565b60405180910390fd5b6000829050600073ffffffffffffffffffffffffffffffffffffffff168573ffffffffffffffffffffffffffffffffffffffff1614156117f6576117f181611c0f565b611835565b8373ffffffffffffffffffffffffffffffffffffffff168573ffffffffffffffffffffffffffffffffffffffff1614611834576118338582611c58565b5b5b600073ffffffffffffffffffffffffffffffffffffffff168473ffffffffffffffffffffffffffffffffffffffff1614156118785761187381611dc5565b6118b7565b8473ffffffffffffffffffffffffffffffffffffffff168473ffffffffffffffffffffffffffffffffffffffff16146118b6576118b58482611e96565b5b5b5050505050565b50505050565b6118ce8383611f15565b6118db600084848461191f565b61191a576040517f08c379a000000000000000000000000000000000000000000000000000000000815260040161191190612ee1565b60405180910390fd5b505050565b60006119408473ffffffffffffffffffffffffffffffffffffffff16612133565b15611aa9578373ffffffffffffffffffffffffffffffffffffffff1663150b7a02611969610de8565b8786866040518563ffffffff1660e01b815260040161198b9493929190613017565b602060405180830381600087803b1580156119a557600080fd5b505af19250505080156119d657506040513d601f19601f820116820180604052508101906119d39190613078565b60015b611a59573d8060008114611a06576040519150601f19603f3d011682016040523d82523d6000602084013e611a0b565b606091505b50600081511415611a51576040517f08c379a0000000000000000000000000000000000000000000000000000000008152600401611a4890612ee1565b60405180910390fd5b805181602001fd5b63150b7a0260e01b7bffffffffffffffffffffffffffffffffffffffffffffffffffffffff1916817bffffffffffffffffffffffffffffffffffffffffffffffffffffffff191614915050611aae565b600190505b949350505050565b600080600090507a184f03e93ff9f4daa797ed6e38ed64bf6a1f0100000000000000008310611b14577a184f03e93ff9f4daa797ed6e38ed64bf6a1f0100000000000000008381611b0a57611b09612f01565b5b0492506040810190505b6d04ee2d6d415b85acef81000000008310611b51576d04ee2d6d415b85acef81000000008381611b4757611b46612f01565b5b0492506020810190505b662386f26fc100008310611b8057662386f26fc100008381611b7657611b75612f01565b5b0492506010810190505b6305f5e1008310611ba9576305f5e1008381611b9f57611b9e612f01565b5b0492506008810190505b6127108310611bce576127108381611bc457611bc3612f01565b5b0492506004810190505b60648310611bf15760648381611be757611be6612f01565b5b0492506002810190505b600a8310611c00576001810190505b80915050919050565b50505050565b6008805490506009600083815260200190815260200160002081905550600881908060018154018082558091505060019003906000526020600020016000909190919091505550565b60006001611c65846108c6565b611c6f91906130d4565b9050600060076000848152602001908152602001600020549050818114611d54576000600660008673ffffffffffffffffffffffffffffffffffffffff1673ffffffffffffffffffffffffffffffffffffffff168152602001908152602001600020600084815260200190815260200160002054905080600660008773ffffffffffffffffffffffffffffffffffffffff1673ffffffffffffffffffffffffffffffffffffffff168152602001908152602001600020600084815260200190815260200160002081905550816007600083815260200190815260200160002081905550505b6007600084815260200190815260200160002060009055600660008573ffffffffffffffffffffffffffffffffffffffff1673ffffffffffffffffffffffffffffffffffffffff16815260200190815260200160002060008381526020019081526020016000206000905550505050565b60006001600880549050611dd991906130d4565b9050600060096000848152602001908152602001600020549050600060088381548110611e0957611e08612a54565b5b906000526020600020015490508060088381548110611e2b57611e2a612a54565b5b906000526020600020018190555081600960008381526020019081526020016000208190555060096000858152602001908152602001600020600090556008805480611e7a57611e79613108565b5b6001900381819060005260206000200160009055905550505050565b6000611ea1836108c6565b905081600660008573ffffffffffffffffffffffffffffffffffffffff1673ffffffffffffffffffffffffffffffffffffffff168152602001908152602001600020600083815260200190815260200160002081905550806007600084815260200190815260200160002081905550505050565b600073ffffffffffffffffffffffffffffffffffffffff168273ffffffffffffffffffffffffffffffffffffffff161415611f85576040517f08c379a0000000000000000000000000000000000000000000000000000000008152600401611f7c90613183565b60405180910390fd5b611f8e8161171d565b15611fce576040517f08c379a0000000000000000000000000000000000000000000000000000000008152600401611fc5906131ef565b60405180910390fd5b611fdc60008383600161175e565b611fe58161171d565b15612025576040517f08c379a000000000000000000000000000000000000000000000000000000000815260040161201c906131ef565b60405180910390fd5b6001600360008473ffffffffffffffffffffffffffffffffffffffff1673ffffffffffffffffffffffffffffffffffffffff16815260200190815260200160002060008282540192505081905550816002600083815260200190815260200160002060006101000a81548173ffffffffffffffffffffffffffffffffffffffff021916908373ffffffffffffffffffffffffffffffffffffffff160217905550808273ffffffffffffffffffffffffffffffffffffffff16600073ffffffffffffffffffffffffffffffffffffffff167fddf252ad1be2c89b69c2b068fc378daa952ba7f163c4a11628f55a4df523b3ef60405160405180910390a461212f6000838360016118be565b5050565b6000808273ffffffffffffffffffffffffffffffffffffffff163b119050919050565b6000604051905090565b600080fd5b600080fd5b60007fffffffff0000000000000000000000000000000000000000000000000000000082169050919050565b61219f8161216a565b81146121aa57600080fd5b50565b6000813590506121bc81612196565b92915050565b6000602082840312156121d8576121d7612160565b5b60006121e6848285016121ad565b91505092915050565b60008115159050919050565b612204816121ef565b82525050565b600060208201905061221f60008301846121fb565b92915050565b600081519050919050565b600082825260208201905092915050565b60005b8381101561225f578082015181840152602081019050612244565b8381111561226e576000848401525b50505050565b6000601f19601f8301169050919050565b600061229082612225565b61229a8185612230565b93506122aa818560208601612241565b6122b381612274565b840191505092915050565b600060208201905081810360008301526122d88184612285565b905092915050565b6000819050919050565b6122f3816122e0565b81146122fe57600080fd5b50565b600081359050612310816122ea565b92915050565b60006020828403121561232c5761232b612160565b5b600061233a84828501612301565b91505092915050565b600073ffffffffffffffffffffffffffffffffffffffff82169050919050565b600061236e82612343565b9050919050565b61237e81612363565b82525050565b60006020820190506123996000830184612375565b92915050565b6123a881612363565b81146123b357600080fd5b50565b6000813590506123c58161239f565b92915050565b600080604083850312156123e2576123e1612160565b5b60006123f0858286016123b6565b925050602061240185828601612301565b9150509250929050565b612414816122e0565b82525050565b600060208201905061242f600083018461240b565b92915050565b60008060006060848603121561244e5761244d612160565b5b600061245c868287016123b6565b935050602061246d868287016123b6565b925050604061247e86828701612301565b9150509250925092565b60006020828403121561249e5761249d612160565b5b60006124ac848285016123b6565b91505092915050565b6124be816121ef565b81146124c957600080fd5b50565b6000813590506124db816124b5565b92915050565b600080604083850312156124f8576124f7612160565b5b6000612506858286016123b6565b9250506020612517858286016124cc565b9150509250929050565b600080fd5b600080fd5b7f4e487b7100000000000000000000000000000000000000000000000000000000600052604160045260246000fd5b61256382612274565b810181811067ffffffffffffffff821117156125825761258161252b565b5b80604052505050565b6000612595612156565b90506125a1828261255a565b919050565b600067ffffffffffffffff8211156125c1576125c061252b565b5b6125ca82612274565b9050602081019050919050565b82818337600083830152505050565b60006125f96125f4846125a6565b61258b565b90508281526020810184848401111561261557612614612526565b5b6126208482856125d7565b509392505050565b600082601f83011261263d5761263c612521565b5b813561264d8482602086016125e6565b91505092915050565b600080600080608085870312156126705761266f612160565b5b600061267e878288016123b6565b945050602061268f878288016123b6565b93505060406126a087828801612301565b925050606085013567ffffffffffffffff8111156126c1576126c0612165565b5b6126cd87828801612628565b91505092959194509250565b600080604083850312156126f0576126ef612160565b5b60006126fe858286016123b6565b925050602061270f858286016123b6565b9150509250929050565b7f4e487b7100000000000000000000000000000000000000000000000000000000600052602260045260246000fd5b6000600282049050600182168061276057607f821691505b6020821081141561277457612773612719565b5b50919050565b7f4552433732313a20617070726f76616c20746f2063757272656e74206f776e6560008201527f7200000000000000000000000000000000000000000000000000000000000000602082015250565b60006127d6602183612230565b91506127e18261277a565b604082019050919050565b60006020820190508181036000830152612805816127c9565b9050919050565b7f4552433732313a20617070726f76652063616c6c6572206973206e6f7420746f60008201527f6b656e206f776e6572206f7220617070726f76656420666f7220616c6c000000602082015250565b6000612868603d83612230565b91506128738261280c565b604082019050919050565b600060208201905081810360008301526128978161285b565b9050919050565b7f4552433732313a2063616c6c6572206973206e6f7420746f6b656e206f776e6560008201527f72206f7220617070726f76656400000000000000000000000000000000000000602082015250565b60006128fa602d83612230565b91506129058261289e565b604082019050919050565b60006020820190508181036000830152612929816128ed565b9050919050565b7f455243373231456e756d657261626c653a206f776e657220696e646578206f7560008201527f74206f6620626f756e6473000000000000000000000000000000000000000000602082015250565b600061298c602b83612230565b915061299782612930565b604082019050919050565b600060208201905081810360008301526129bb8161297f565b9050919050565b7f455243373231456e756d657261626c653a20676c6f62616c20696e646578206f60008201527f7574206f6620626f756e64730000000000000000000000000000000000000000602082015250565b6000612a1e602c83612230565b9150612a29826129c2565b604082019050919050565b60006020820190508181036000830152612a4d81612a11565b9050919050565b7f4e487b7100000000000000000000000000000000000000000000000000000000600052603260045260246000fd5b7f4552433732313a20696e76616c696420746f6b656e2049440000000000000000600082015250565b6000612ab9601883612230565b9150612ac482612a83565b602082019050919050565b60006020820190508181036000830152612ae881612aac565b9050919050565b7f4552433732313a2061646472657373207a65726f206973206e6f74206120766160008201527f6c6964206f776e65720000000000000000000000000000000000000000000000602082015250565b6000612b4b602983612230565b9150612b5682612aef565b604082019050919050565b60006020820190508181036000830152612b7a81612b3e565b9050919050565b600081905092915050565b6000612b9782612225565b612ba18185612b81565b9350612bb1818560208601612241565b80840191505092915050565b6000612bc98285612b8c565b9150612bd58284612b8c565b91508190509392505050565b7f4f776e61626c653a206e6577206f776e657220697320746865207a65726f206160008201527f6464726573730000000000000000000000000000000000000000000000000000602082015250565b6000612c3d602683612230565b9150612c4882612be1565b604082019050919050565b60006020820190508181036000830152612c6c81612c30565b9050919050565b7f4552433732313a207472616e736665722066726f6d20696e636f72726563742060008201527f6f776e6572000000000000000000000000000000000000000000000000000000602082015250565b6000612ccf602583612230565b9150612cda82612c73565b604082019050919050565b60006020820190508181036000830152612cfe81612cc2565b9050919050565b7f4552433732313a207472616e7366657220746f20746865207a65726f2061646460008201527f7265737300000000000000000000000000000000000000000000000000000000602082015250565b6000612d61602483612230565b9150612d6c82612d05565b604082019050919050565b60006020820190508181036000830152612d9081612d54565b9050919050565b7f4f776e61626c653a2063616c6c6572206973206e6f7420746865206f776e6572600082015250565b6000612dcd602083612230565b9150612dd882612d97565b602082019050919050565b60006020820190508181036000830152612dfc81612dc0565b9050919050565b7f4552433732313a20617070726f766520746f2063616c6c657200000000000000600082015250565b6000612e39601983612230565b9150612e4482612e03565b602082019050919050565b60006020820190508181036000830152612e6881612e2c565b9050919050565b7f4552433732313a207472616e7366657220746f206e6f6e20455243373231526560008201527f63656976657220696d706c656d656e7465720000000000000000000000000000602082015250565b6000612ecb603283612230565b9150612ed682612e6f565b604082019050919050565b60006020820190508181036000830152612efa81612ebe565b9050919050565b7f4e487b7100000000000000000000000000000000000000000000000000000000600052601260045260246000fd5b7f455243373231456e756d657261626c653a20636f6e736563757469766520747260008201527f616e7366657273206e6f7420737570706f727465640000000000000000000000602082015250565b6000612f8c603583612230565b9150612f9782612f30565b604082019050919050565b60006020820190508181036000830152612fbb81612f7f565b9050919050565b600081519050919050565b600082825260208201905092915050565b6000612fe982612fc2565b612ff38185612fcd565b9350613003818560208601612241565b61300c81612274565b840191505092915050565b600060808201905061302c6000830187612375565b6130396020830186612375565b613046604083018561240b565b81810360608301526130588184612fde565b905095945050505050565b60008151905061307281612196565b92915050565b60006020828403121561308e5761308d612160565b5b600061309c84828501613063565b91505092915050565b7f4e487b7100000000000000000000000000000000000000000000000000000000600052601160045260246000fd5b60006130df826122e0565b91506130ea836122e0565b9250828210156130fd576130fc6130a5565b5b828203905092915050565b7f4e487b7100000000000000000000000000000000000000000000000000000000600052603160045260246000fd5b7f4552433732313a206d696e7420746f20746865207a65726f2061646472657373600082015250565b600061316d602083612230565b915061317882613137565b602082019050919050565b6000602082019050818103600083015261319c81613160565b9050919050565b7f4552433732313a20746f6b656e20616c7265616479206d696e74656400000000600082015250565b60006131d9601c83612230565b91506131e4826131a3565b602082019050919050565b60006020820190508181036000830152613208816131cc565b905091905056fea2646970667358221220c991111bdbb5e8f0347c91db8d48fb5bb721a080fba8ea67ab449090be9d798b64736f6c63430008090033",
  "immutableReferences": {},
  "source": "// SPDX-License-Identifier: MIT\r\npragma solidity ^0.8.9;\r\n\r\nimport \"@openzeppelin/contracts/token/ERC721/ERC721.sol\";\r\nimport \"@openzeppelin/contracts/access/Ownable.sol\";\r\nimport \"@openzeppelin/contracts/utils/Counters.sol\";\r\nimport \"@openzeppelin/contracts/token/ERC721/extensions/ERC721Enumerable.sol\";\r\n\r\ncontract EsaipTickets is ERC721Enumerable, Ownable {\r\n    using Counters for Counters.Counter;\r\n\r\n    Counters.Counter private _tokenIdCounter;\r\n\r\n    struct Ticket {\r\n        uint256 concertId;\r\n    }\r\n\r\n    mapping(uint256 => Ticket) private _tickets;\r\n\r\n    constructor() ERC721(\"EsaipTickets\", \"ETS\") {}\r\n\r\n    function safeMint(address to, uint256 concertId) public onlyOwner {\r\n        uint256 tokenId = _tokenIdCounter.current();\r\n        _tokenIdCounter.increment();\r\n        _safeMint(to, tokenId);\r\n\r\n        Ticket storage ticket = _tickets[tokenId];\r\n        ticket.concertId = concertId;\r\n    }\r\n\r\n    function getTicketInfo(uint256 tokenId) external view returns (uint256 concertId) {\r\n        Ticket storage ticket = _tickets[tokenId];\r\n        concertId = ticket.concertId;\r\n    }\r\n}\r\n",
  "sourcePath": "C:\\Users\\zexss\\Documents\\PJ-Majeure\\contracts\\EsaipTickets.sol",
  "compiler": {
    "name": "solc",
    "version": "0.8.9+commit.e5eed63a.Emscripten.clang"
  },
  "schemaVersion": "3.4.13",
  "updatedAt": "2023-05-14T17:26:51.043Z",
  "networkType": "ethereum",
  "devdoc": {
    "kind": "dev",
    "methods": {
      "approve(address,uint256)": {
        "details": "See {IERC721-approve}."
      },
      "balanceOf(address)": {
        "details": "See {IERC721-balanceOf}."
      },
      "getApproved(uint256)": {
        "details": "See {IERC721-getApproved}."
      },
      "isApprovedForAll(address,address)": {
        "details": "See {IERC721-isApprovedForAll}."
      },
      "name()": {
        "details": "See {IERC721Metadata-name}."
      },
      "owner()": {
        "details": "Returns the address of the current owner."
      },
      "ownerOf(uint256)": {
        "details": "See {IERC721-ownerOf}."
      },
      "renounceOwnership()": {
        "details": "Leaves the contract without owner. It will not be possible to call `onlyOwner` functions anymore. Can only be called by the current owner. NOTE: Renouncing ownership will leave the contract without an owner, thereby removing any functionality that is only available to the owner."
      },
      "safeTransferFrom(address,address,uint256)": {
        "details": "See {IERC721-safeTransferFrom}."
      },
      "safeTransferFrom(address,address,uint256,bytes)": {
        "details": "See {IERC721-safeTransferFrom}."
      },
      "setApprovalForAll(address,bool)": {
        "details": "See {IERC721-setApprovalForAll}."
      },
      "supportsInterface(bytes4)": {
        "details": "See {IERC165-supportsInterface}."
      },
      "symbol()": {
        "details": "See {IERC721Metadata-symbol}."
      },
      "tokenByIndex(uint256)": {
        "details": "See {IERC721Enumerable-tokenByIndex}."
      },
      "tokenOfOwnerByIndex(address,uint256)": {
        "details": "See {IERC721Enumerable-tokenOfOwnerByIndex}."
      },
      "tokenURI(uint256)": {
        "details": "See {IERC721Metadata-tokenURI}."
      },
      "totalSupply()": {
        "details": "See {IERC721Enumerable-totalSupply}."
      },
      "transferFrom(address,address,uint256)": {
        "details": "See {IERC721-transferFrom}."
      },
      "transferOwnership(address)": {
        "details": "Transfers ownership of the contract to a new account (`newOwner`). Can only be called by the current owner."
      }
    },
    "version": 1
  },
  "userdoc": {
    "kind": "user",
    "methods": {},
    "version": 1
  }
}